{
  "_format": "hh-sol-artifact-1",
  "contractName": "PrivateVotingSystem",
  "sourceName": "contracts/PrivateVotingSystem.sol",
  "abi": [
    {
      "anonymous": false,
      "inputs": [
        {
          "indexed": true,
          "internalType": "uint256",
          "name": "productId",
          "type": "uint256"
        },
        {
          "indexed": true,
          "internalType": "address",
          "name": "creator",
          "type": "address"
        },
        {
          "indexed": false,
          "internalType": "string",
          "name": "name",
          "type": "string"
        }
      ],
      "name": "ProductCreated",
      "type": "event"
    },
    {
      "anonymous": false,
      "inputs": [
        {
          "indexed": true,
          "internalType": "uint256",
          "name": "productId",
          "type": "uint256"
        },
        {
          "indexed": false,
          "internalType": "bool",
          "name": "active",
          "type": "bool"
        }
      ],
      "name": "ProductStatusChanged",
      "type": "event"
    },
    {
      "anonymous": false,
      "inputs": [
        {
          "indexed": true,
          "internalType": "uint256",
          "name": "productId",
          "type": "uint256"
        },
        {
          "indexed": true,
          "internalType": "address",
          "name": "voter",
          "type": "address"
        }
      ],
      "name": "VoteSubmitted",
      "type": "event"
    },
    {
      "inputs": [
        {
          "internalType": "string",
          "name": "_name",
          "type": "string"
        },
        {
          "internalType": "string",
          "name": "_description",
          "type": "string"
        }
      ],
      "name": "createProduct",
      "outputs": [],
      "stateMutability": "nonpayable",
      "type": "function"
    },
    {
      "inputs": [
        {
          "internalType": "uint256",
          "name": "_productId",
          "type": "uint256"
        }
      ],
      "name": "getProductInfo",
      "outputs": [
        {
          "internalType": "string",
          "name": "name",
          "type": "string"
        },
        {
          "internalType": "string",
          "name": "description",
          "type": "string"
        },
        {
          "internalType": "address",
          "name": "creator",
          "type": "address"
        },
        {
          "internalType": "uint256",
          "name": "createdAt",
          "type": "uint256"
        },
        {
          "internalType": "bool",
          "name": "active",
          "type": "bool"
        }
      ],
      "stateMutability": "view",
      "type": "function"
    },
    {
      "inputs": [
        {
          "internalType": "uint256",
          "name": "_productId",
          "type": "uint256"
        }
      ],
      "name": "getProductStats",
      "outputs": [
        {
          "internalType": "uint256",
          "name": "totalRating",
          "type": "uint256"
        },
        {
          "internalType": "uint256",
          "name": "voteCount",
          "type": "uint256"
        },
        {
          "internalType": "uint256",
          "name": "averageRating",
          "type": "uint256"
        }
      ],
      "stateMutability": "view",
      "type": "function"
    },
    {
      "inputs": [],
      "name": "getUserVoteCount",
      "outputs": [
        {
          "internalType": "uint256",
          "name": "",
          "type": "uint256"
        }
      ],
      "stateMutability": "view",
      "type": "function"
    },
    {
      "inputs": [],
      "name": "getUserVotedProducts",
      "outputs": [
        {
          "internalType": "uint256[]",
          "name": "",
          "type": "uint256[]"
        }
      ],
      "stateMutability": "view",
      "type": "function"
    },
    {
      "inputs": [
        {
          "internalType": "uint256",
          "name": "_productId",
          "type": "uint256"
        },
        {
          "internalType": "address",
          "name": "_voter",
          "type": "address"
        }
      ],
      "name": "hasVoted",
      "outputs": [
        {
          "internalType": "bool",
          "name": "",
          "type": "bool"
        }
      ],
      "stateMutability": "view",
      "type": "function"
    },
    {
      "inputs": [],
      "name": "productCount",
      "outputs": [
        {
          "internalType": "uint256",
          "name": "",
          "type": "uint256"
        }
      ],
      "stateMutability": "view",
      "type": "function"
    },
    {
      "inputs": [
        {
          "internalType": "uint256",
          "name": "",
          "type": "uint256"
        },
        {
          "internalType": "address",
          "name": "",
          "type": "address"
        }
      ],
      "name": "productVotes",
      "outputs": [
        {
          "internalType": "uint8",
          "name": "rating",
          "type": "uint8"
        },
        {
          "internalType": "uint256",
          "name": "timestamp",
          "type": "uint256"
        },
        {
          "internalType": "bool",
          "name": "exists",
          "type": "bool"
        }
      ],
      "stateMutability": "view",
      "type": "function"
    },
    {
      "inputs": [
        {
          "internalType": "uint256",
          "name": "",
          "type": "uint256"
        }
      ],
      "name": "products",
      "outputs": [
        {
          "internalType": "string",
          "name": "name",
          "type": "string"
        },
        {
          "internalType": "string",
          "name": "description",
          "type": "string"
        },
        {
          "internalType": "address",
          "name": "creator",
          "type": "address"
        },
        {
          "internalType": "uint256",
          "name": "totalRating",
          "type": "uint256"
        },
        {
          "internalType": "uint256",
          "name": "totalVotes",
          "type": "uint256"
        },
        {
          "internalType": "uint256",
          "name": "createdAt",
          "type": "uint256"
        },
        {
          "internalType": "bool",
          "name": "active",
          "type": "bool"
        }
      ],
      "stateMutability": "view",
      "type": "function"
    },
    {
      "inputs": [
        {
          "internalType": "uint256",
          "name": "_productId",
          "type": "uint256"
        },
        {
          "internalType": "uint8",
          "name": "_rating",
          "type": "uint8"
        }
      ],
      "name": "submitVote",
      "outputs": [],
      "stateMutability": "nonpayable",
      "type": "function"
    },
    {
      "inputs": [
        {
          "internalType": "uint256",
          "name": "_productId",
          "type": "uint256"
        }
      ],
      "name": "toggleProductStatus",
      "outputs": [],
      "stateMutability": "nonpayable",
      "type": "function"
    },
    {
      "inputs": [
        {
          "internalType": "address",
          "name": "",
          "type": "address"
        },
        {
          "internalType": "uint256",
          "name": "",
          "type": "uint256"
        }
      ],
      "name": "userVotes",
      "outputs": [
        {
          "internalType": "uint256",
          "name": "",
          "type": "uint256"
        }
      ],
      "stateMutability": "view",
      "type": "function"
    }
  ],
  "bytecode": "0x608060405234801561001057600080fd5b5061104a806100206000396000f3fe608060405234801561001057600080fd5b50600436106100b45760003560e01c80638b3511f7116100715780638b3511f71461018d57806399653fbe146101a0578063ad00a155146101b3578063bcebd44c146101c8578063c36ae76614610226578063e0f6ef871461023957600080fd5b80634117ef7e146100b957806343859632146100dd57806379a85e6c146101005780637ab8bb45146101245780637acc0b201461015257806387592bce14610178575b600080fd5b336000908152600360205260409020545b6040519081526020015b60405180910390f35b6100f06100eb366004610b52565b610242565b60405190151581526020016100d4565b61011361010e366004610b7e565b610271565b6040516100d4959493929190610bdd565b610137610132366004610b7e565b610413565b604080519384526020840192909252908201526060016100d4565b610165610160366004610b7e565b610492565b6040516100d49796959493929190610c2b565b61018b610186366004610ccf565b6105ea565b005b6100ca61019b366004610d3b565b610775565b61018b6101ae366004610d65565b6107a6565b6101bb6109e8565b6040516100d49190610d9b565b6102056101d6366004610b52565b6002602081815260009384526040808520909152918352912080546001820154919092015460ff928316921683565b6040805160ff909416845260208401929092521515908201526060016100d4565b61018b610234366004610b7e565b610a49565b6100ca60005481565b60008281526002602081815260408084206001600160a01b0386168552909152909120015460ff165b92915050565b6060806000806000808611801561028a57506000548611155b6102af5760405162461bcd60e51b81526004016102a690610ddf565b60405180910390fd5b6000868152600160208190526040909120600281015460058201546006830154835493948594908501936001600160a01b0316929160ff169085906102f390610e0b565b80601f016020809104026020016040519081016040528092919081815260200182805461031f90610e0b565b801561036c5780601f106103415761010080835404028352916020019161036c565b820191906000526020600020905b81548152906001019060200180831161034f57829003601f168201915b5050505050945083805461037f90610e0b565b80601f01602080910402602001604051908101604052809291908181526020018280546103ab90610e0b565b80156103f85780601f106103cd576101008083540402835291602001916103f8565b820191906000526020600020905b8154815290600101906020018083116103db57829003601f168201915b50505050509350955095509550955095505091939590929450565b6000806000808411801561042957506000548411155b6104455760405162461bcd60e51b81526004016102a690610ddf565b600084815260016020526040902060038101546004820154909450925082156104855782610474856064610e5b565b61047e9190610e72565b915061048a565b600091505b509193909250565b6001602052600090815260409020805481906104ad90610e0b565b80601f01602080910402602001604051908101604052809291908181526020018280546104d990610e0b565b80156105265780601f106104fb57610100808354040283529160200191610526565b820191906000526020600020905b81548152906001019060200180831161050957829003601f168201915b50505050509080600101805461053b90610e0b565b80601f016020809104026020016040519081016040528092919081815260200182805461056790610e0b565b80156105b45780601f10610589576101008083540402835291602001916105b4565b820191906000526020600020905b81548152906001019060200180831161059757829003601f168201915b505050600284015460038501546004860154600587015460069097015495966001600160a01b0390931695919450925060ff1687565b6000805490806105f983610e94565b91905055506040518060e0016040528085858080601f016020809104026020016040519081016040528093929190818152602001838380828437600092019190915250505090825250604080516020601f8601819004810282018101909252848152918101919085908590819084018382808284376000920182905250938552505033602080850191909152604080850184905260608501849052426080860152600160a0909501859052835484529390525020815181906106bb9082610f12565b50602082015160018201906106d09082610f12565b506040828101516002830180546001600160a01b0319166001600160a01b03909216919091179055606083015160038301556080830151600483015560a0830151600583015560c0909201516006909101805460ff191691151591909117905560005490513391907f91bfc064380de20e1c90ea2ed78d0358b4ab45d446c0b93b0b07bc86f95897da906107679088908890610fd2565b60405180910390a350505050565b6003602052816000526040600020818154811061079157600080fd5b90600052602060002001600091509150505481565b6000821180156107b857506000548211155b6107d45760405162461bcd60e51b81526004016102a690610ddf565b60008281526001602052604090206006015460ff1661082a5760405162461bcd60e51b815260206004820152601260248201527150726f64756374206e6f742061637469766560701b60448201526064016102a6565b6000828152600260208181526040808420338552909152909120015460ff16156108865760405162461bcd60e51b815260206004820152600d60248201526c105b1c9958591e481d9bdd1959609a1b60448201526064016102a6565b60018160ff161015801561089e575060058160ff1611155b6108ea5760405162461bcd60e51b815260206004820152601e60248201527f526174696e67206d757374206265206265747765656e203120616e642035000060448201526064016102a6565b6040805160608101825260ff808416808352426020808501918252600185870181815260008a81526002808552898220338352855289822098518954981660ff199889161789559451888401559051969093018054961515969095169590951790935586815292909152918120600301805490919061096a908490611001565b909155505060008281526001602081905260408220600401805491929091610993908490611001565b909155505033600081815260036020908152604080832080546001810182559084529183209091018590555184917ff4a95e0ccff9e012051fb09885c2134c4034ed409e70914a95e1f7c561d206fd91a35050565b33600090815260036020908152604091829020805483518184028101840190945280845260609392830182828015610a3f57602002820191906000526020600020905b815481526020019060010190808311610a2b575b5050505050905090565b600081118015610a5b57506000548111155b610a775760405162461bcd60e51b81526004016102a690610ddf565b6000818152600160205260409020600201546001600160a01b03163314610ad65760405162461bcd60e51b81526020600482015260136024820152722737ba10383937b23ab1ba1031b932b0ba37b960691b60448201526064016102a6565b600081815260016020908152604091829020600601805460ff8082161560ff199092168217909255925192161515825282917f294753ecc63751eea2a69294d96d2d0e5e190f6e4bc85db582e73f8a74e1c602910160405180910390a250565b80356001600160a01b0381168114610b4d57600080fd5b919050565b60008060408385031215610b6557600080fd5b82359150610b7560208401610b36565b90509250929050565b600060208284031215610b9057600080fd5b5035919050565b6000815180845260005b81811015610bbd57602081850181015186830182015201610ba1565b506000602082860101526020601f19601f83011685010191505092915050565b60a081526000610bf060a0830188610b97565b8281036020840152610c028188610b97565b6001600160a01b0396909616604084015250506060810192909252151560809091015292915050565b60e081526000610c3e60e083018a610b97565b8281036020840152610c50818a610b97565b6001600160a01b0398909816604084015250506060810194909452608084019290925260a0830152151560c09091015292915050565b60008083601f840112610c9857600080fd5b50813567ffffffffffffffff811115610cb057600080fd5b602083019150836020828501011115610cc857600080fd5b9250929050565b60008060008060408587031215610ce557600080fd5b843567ffffffffffffffff80821115610cfd57600080fd5b610d0988838901610c86565b90965094506020870135915080821115610d2257600080fd5b50610d2f87828801610c86565b95989497509550505050565b60008060408385031215610d4e57600080fd5b610d5783610b36565b946020939093013593505050565b60008060408385031215610d7857600080fd5b82359150602083013560ff81168114610d9057600080fd5b809150509250929050565b6020808252825182820181905260009190848201906040850190845b81811015610dd357835183529284019291840191600101610db7565b50909695505050505050565b602080825260129082015271125b9d985b1a59081c1c9bd91d58dd08125160721b604082015260600190565b600181811c90821680610e1f57607f821691505b602082108103610e3f57634e487b7160e01b600052602260045260246000fd5b50919050565b634e487b7160e01b600052601160045260246000fd5b808202811582820484141761026b5761026b610e45565b600082610e8f57634e487b7160e01b600052601260045260246000fd5b500490565b600060018201610ea657610ea6610e45565b5060010190565b634e487b7160e01b600052604160045260246000fd5b601f821115610f0d57600081815260208120601f850160051c81016020861015610eea5750805b601f850160051c820191505b81811015610f0957828155600101610ef6565b5050505b505050565b815167ffffffffffffffff811115610f2c57610f2c610ead565b610f4081610f3a8454610e0b565b84610ec3565b602080601f831160018114610f755760008415610f5d5750858301515b600019600386901b1c1916600185901b178555610f09565b600085815260208120601f198616915b82811015610fa457888601518255948401946001909101908401610f85565b5085821015610fc25787850151600019600388901b60f8161c191681555b5050505050600190811b01905550565b60208152816020820152818360408301376000818301604090810191909152601f909201601f19160101919050565b8082018082111561026b5761026b610e4556fea2646970667358221220593bc1f2f715bca5679346fb154281345df20f898ef775297f06fe6bff82d31864736f6c63430008130033",
  "linkReferences": {},
  "deployedLinkReferences": {}
}