{
  "_format": "hh-sol-artifact-1",
  "contractName": "PublicVotingSystem",
  "sourceName": "contracts/PublicVotingSystem.sol",
  "abi": [
    {
      "inputs": [],
      "stateMutability": "nonpayable",
      "type": "constructor"
    },
    {
      "anonymous": false,
      "inputs": [
        {
          "indexed": true,
          "internalType": "address",
          "name": "owner",
          "type": "address"
        },
        {
          "indexed": false,
          "internalType": "uint256",
          "name": "amount",
          "type": "uint256"
        }
      ],
      "name": "FundsWithdrawn",
      "type": "event"
    },
    {
      "anonymous": false,
      "inputs": [
        {
          "indexed": true,
          "internalType": "uint256",
          "name": "productId",
          "type": "uint256"
        },
        {
          "indexed": true,
          "internalType": "address",
          "name": "creator",
          "type": "address"
        },
        {
          "indexed": false,
          "internalType": "string",
          "name": "name",
          "type": "string"
        }
      ],
      "name": "ProductCreated",
      "type": "event"
    },
    {
      "anonymous": false,
      "inputs": [
        {
          "indexed": true,
          "internalType": "uint256",
          "name": "productId",
          "type": "uint256"
        },
        {
          "indexed": true,
          "internalType": "address",
          "name": "voter",
          "type": "address"
        },
        {
          "indexed": false,
          "internalType": "uint8",
          "name": "rating",
          "type": "uint8"
        },
        {
          "indexed": false,
          "internalType": "uint256",
          "name": "amount",
          "type": "uint256"
        }
      ],
      "name": "VoteSubmitted",
      "type": "event"
    },
    {
      "inputs": [],
      "name": "MIN_VOTE_AMOUNT",
      "outputs": [
        {
          "internalType": "uint256",
          "name": "",
          "type": "uint256"
        }
      ],
      "stateMutability": "view",
      "type": "function"
    },
    {
      "inputs": [
        {
          "internalType": "string",
          "name": "_name",
          "type": "string"
        },
        {
          "internalType": "string",
          "name": "_description",
          "type": "string"
        }
      ],
      "name": "createProduct",
      "outputs": [],
      "stateMutability": "nonpayable",
      "type": "function"
    },
    {
      "inputs": [],
      "name": "getContractBalance",
      "outputs": [
        {
          "internalType": "uint256",
          "name": "",
          "type": "uint256"
        }
      ],
      "stateMutability": "view",
      "type": "function"
    },
    {
      "inputs": [
        {
          "internalType": "uint256",
          "name": "_productId",
          "type": "uint256"
        }
      ],
      "name": "getProductInfo",
      "outputs": [
        {
          "internalType": "string",
          "name": "name",
          "type": "string"
        },
        {
          "internalType": "string",
          "name": "description",
          "type": "string"
        },
        {
          "internalType": "address",
          "name": "creator",
          "type": "address"
        },
        {
          "internalType": "uint256",
          "name": "createdAt",
          "type": "uint256"
        },
        {
          "internalType": "bool",
          "name": "active",
          "type": "bool"
        }
      ],
      "stateMutability": "view",
      "type": "function"
    },
    {
      "inputs": [
        {
          "internalType": "uint256",
          "name": "_productId",
          "type": "uint256"
        }
      ],
      "name": "getProductStats",
      "outputs": [
        {
          "internalType": "uint256",
          "name": "totalRating",
          "type": "uint256"
        },
        {
          "internalType": "uint256",
          "name": "voteCount",
          "type": "uint256"
        },
        {
          "internalType": "uint256",
          "name": "averageRating",
          "type": "uint256"
        }
      ],
      "stateMutability": "view",
      "type": "function"
    },
    {
      "inputs": [
        {
          "internalType": "uint256",
          "name": "_productId",
          "type": "uint256"
        }
      ],
      "name": "getProductVoters",
      "outputs": [
        {
          "internalType": "address[]",
          "name": "",
          "type": "address[]"
        }
      ],
      "stateMutability": "view",
      "type": "function"
    },
    {
      "inputs": [
        {
          "internalType": "address",
          "name": "_user",
          "type": "address"
        }
      ],
      "name": "getUserVoteCount",
      "outputs": [
        {
          "internalType": "uint256",
          "name": "count",
          "type": "uint256"
        }
      ],
      "stateMutability": "view",
      "type": "function"
    },
    {
      "inputs": [
        {
          "internalType": "uint256",
          "name": "_productId",
          "type": "uint256"
        },
        {
          "internalType": "address",
          "name": "_voter",
          "type": "address"
        }
      ],
      "name": "getVote",
      "outputs": [
        {
          "internalType": "uint8",
          "name": "rating",
          "type": "uint8"
        },
        {
          "internalType": "uint256",
          "name": "timestamp",
          "type": "uint256"
        },
        {
          "internalType": "uint256",
          "name": "amount",
          "type": "uint256"
        }
      ],
      "stateMutability": "view",
      "type": "function"
    },
    {
      "inputs": [
        {
          "internalType": "uint256",
          "name": "_productId",
          "type": "uint256"
        },
        {
          "internalType": "address",
          "name": "_voter",
          "type": "address"
        }
      ],
      "name": "hasVoted",
      "outputs": [
        {
          "internalType": "bool",
          "name": "",
          "type": "bool"
        }
      ],
      "stateMutability": "view",
      "type": "function"
    },
    {
      "inputs": [],
      "name": "owner",
      "outputs": [
        {
          "internalType": "address",
          "name": "",
          "type": "address"
        }
      ],
      "stateMutability": "view",
      "type": "function"
    },
    {
      "inputs": [],
      "name": "productCount",
      "outputs": [
        {
          "internalType": "uint256",
          "name": "",
          "type": "uint256"
        }
      ],
      "stateMutability": "view",
      "type": "function"
    },
    {
      "inputs": [
        {
          "internalType": "uint256",
          "name": "",
          "type": "uint256"
        },
        {
          "internalType": "uint256",
          "name": "",
          "type": "uint256"
        }
      ],
      "name": "productVoters",
      "outputs": [
        {
          "internalType": "address",
          "name": "",
          "type": "address"
        }
      ],
      "stateMutability": "view",
      "type": "function"
    },
    {
      "inputs": [
        {
          "internalType": "uint256",
          "name": "",
          "type": "uint256"
        }
      ],
      "name": "products",
      "outputs": [
        {
          "internalType": "string",
          "name": "name",
          "type": "string"
        },
        {
          "internalType": "string",
          "name": "description",
          "type": "string"
        },
        {
          "internalType": "address",
          "name": "creator",
          "type": "address"
        },
        {
          "internalType": "uint256",
          "name": "createdAt",
          "type": "uint256"
        },
        {
          "internalType": "bool",
          "name": "active",
          "type": "bool"
        },
        {
          "internalType": "uint256",
          "name": "totalRating",
          "type": "uint256"
        },
        {
          "internalType": "uint256",
          "name": "voteCount",
          "type": "uint256"
        }
      ],
      "stateMutability": "view",
      "type": "function"
    },
    {
      "inputs": [
        {
          "internalType": "uint256",
          "name": "_productId",
          "type": "uint256"
        },
        {
          "internalType": "uint8",
          "name": "_rating",
          "type": "uint8"
        }
      ],
      "name": "submitVote",
      "outputs": [],
      "stateMutability": "payable",
      "type": "function"
    },
    {
      "inputs": [
        {
          "internalType": "uint256",
          "name": "_productId",
          "type": "uint256"
        }
      ],
      "name": "toggleProductStatus",
      "outputs": [],
      "stateMutability": "nonpayable",
      "type": "function"
    },
    {
      "inputs": [
        {
          "internalType": "uint256",
          "name": "",
          "type": "uint256"
        },
        {
          "internalType": "address",
          "name": "",
          "type": "address"
        }
      ],
      "name": "votes",
      "outputs": [
        {
          "internalType": "uint8",
          "name": "rating",
          "type": "uint8"
        },
        {
          "internalType": "uint256",
          "name": "timestamp",
          "type": "uint256"
        },
        {
          "internalType": "uint256",
          "name": "amount",
          "type": "uint256"
        }
      ],
      "stateMutability": "view",
      "type": "function"
    },
    {
      "inputs": [],
      "name": "withdrawFunds",
      "outputs": [],
      "stateMutability": "nonpayable",
      "type": "function"
    },
    {
      "stateMutability": "payable",
      "type": "receive"
    }
  ],
  "bytecode": "0x608060405234801561001057600080fd5b50600480546001600160a01b031916331790556113db806100326000396000f3fe6080604052600436106101025760003560e01c806387592bce11610095578063c36ae76611610064578063c36ae76614610335578063d23254b414610355578063e0f6ef871461039e578063e2a34190146103b4578063f30f4fe5146103d457600080fd5b806387592bce146102555780638da5cb5b1461027557806399653fbe146102ad578063bc3f931f146102c057600080fd5b80636f9fb98a116100d15780636f9fb98a146101a357806379a85e6c146101b65780637ab8bb45146101e75780637acc0b201461022257600080fd5b8063038a35381461010e57806324600fc31461013c5780634385963214610153578063669ea37a1461018357600080fd5b3661010957005b600080fd5b34801561011a57600080fd5b5061012966038d7ea4c6800081565b6040519081526020015b60405180910390f35b34801561014857600080fd5b50610151610401565b005b34801561015f57600080fd5b5061017361016e366004610ec8565b61051a565b6040519015158152602001610133565b34801561018f57600080fd5b5061012961019e366004610ef4565b610549565b3480156101af57600080fd5b5047610129565b3480156101c257600080fd5b506101d66101d1366004610f16565b6105a8565b604051610133959493929190610f75565b3480156101f357600080fd5b50610207610202366004610f16565b610741565b60408051938452602084019290925290820152606001610133565b34801561022e57600080fd5b5061024261023d366004610f16565b6107c0565b6040516101339796959493929190610fc3565b34801561026157600080fd5b50610151610270366004611065565b610918565b34801561028157600080fd5b50600454610295906001600160a01b031681565b6040516001600160a01b039091168152602001610133565b6101516102bb3660046110d1565b610aa6565b3480156102cc57600080fd5b506103166102db366004610ec8565b60009182526002602081815260408085206001600160a01b03949094168552929052912080546001820154919092015460ff90921692909190565b6040805160ff9094168452602084019290925290820152606001610133565b34801561034157600080fd5b50610151610350366004610f16565b610d58565b34801561036157600080fd5b50610316610370366004610ec8565b6002602081815260009384526040808520909152918352912080546001820154919092015460ff9092169183565b3480156103aa57600080fd5b5061012960005481565b3480156103c057600080fd5b506102956103cf366004611107565b610e08565b3480156103e057600080fd5b506103f46103ef366004610f16565b610e40565b6040516101339190611129565b6004546001600160a01b031633146104555760405162461bcd60e51b81526020600482015260126024820152712737ba1031b7b73a3930b1ba1037bbb732b960711b60448201526064015b60405180910390fd5b478061049a5760405162461bcd60e51b81526020600482015260146024820152734e6f2066756e647320746f20776974686472617760601b604482015260640161044c565b6004546040516001600160a01b039091169082156108fc029083906000818181858888f193505050501580156104d4573d6000803e3d6000fd5b506004546040518281526001600160a01b03909116907feaff4b37086828766ad3268786972c0cd24259d4c87a80f9d3963a3c3d999b0d9060200160405180910390a250565b60008281526002602090815260408083206001600160a01b038516845290915290206001015415155b92915050565b600060015b60005481116105a25760008181526002602090815260408083206001600160a01b038716845290915290206001015415610590578161058c8161118c565b9250505b8061059a8161118c565b91505061054e565b50919050565b606080600080600080861180156105c157506000548611155b6105dd5760405162461bcd60e51b815260040161044c906111a5565b6000868152600160208190526040909120600281015460038201546004830154835493948594908501936001600160a01b0316929160ff16908590610621906111d1565b80601f016020809104026020016040519081016040528092919081815260200182805461064d906111d1565b801561069a5780601f1061066f5761010080835404028352916020019161069a565b820191906000526020600020905b81548152906001019060200180831161067d57829003601f168201915b505050505094508380546106ad906111d1565b80601f01602080910402602001604051908101604052809291908181526020018280546106d9906111d1565b80156107265780601f106106fb57610100808354040283529160200191610726565b820191906000526020600020905b81548152906001019060200180831161070957829003601f168201915b50505050509350955095509550955095505091939590929450565b6000806000808411801561075757506000548411155b6107735760405162461bcd60e51b815260040161044c906111a5565b600084815260016020526040902060058101546006820154909450925082156107b357826107a2856064611205565b6107ac919061121c565b91506107b8565b600091505b509193909250565b6001602052600090815260409020805481906107db906111d1565b80601f0160208091040260200160405190810160405280929190818152602001828054610807906111d1565b80156108545780601f1061082957610100808354040283529160200191610854565b820191906000526020600020905b81548152906001019060200180831161083757829003601f168201915b505050505090806001018054610869906111d1565b80601f0160208091040260200160405190810160405280929190818152602001828054610895906111d1565b80156108e25780601f106108b7576101008083540402835291602001916108e2565b820191906000526020600020905b8154815290600101906020018083116108c557829003601f168201915b505050600284015460038501546004860154600587015460069097015495966001600160a01b039093169591945060ff16925087565b6000805490806109278361118c565b91905055506040518060e0016040528085858080601f016020809104026020016040519081016040528093929190818152602001838380828437600092019190915250505090825250604080516020601f8601819004810282018101909252848152918101919085908590819084018382808284376000920182905250938552505033602080850191909152426040808601919091526001606086018190526080860185905260a0909501849052835484529390525020815181906109ec90826112a3565b5060208201516001820190610a0190826112a3565b506040828101516002830180546001600160a01b0319166001600160a01b0390921691909117905560608301516003830155608083015160048301805460ff191691151591909117905560a0830151600583015560c09092015160069091015560005490513391907f91bfc064380de20e1c90ea2ed78d0358b4ab45d446c0b93b0b07bc86f95897da90610a989088908890611363565b60405180910390a350505050565b600082118015610ab857506000548211155b610ad45760405162461bcd60e51b815260040161044c906111a5565b60008281526001602052604090206004015460ff16610b2a5760405162461bcd60e51b815260206004820152601260248201527150726f64756374206e6f742061637469766560701b604482015260640161044c565b60018160ff1610158015610b42575060058160ff1611155b610b8e5760405162461bcd60e51b815260206004820152601e60248201527f526174696e67206d757374206265206265747765656e203120616e6420350000604482015260640161044c565b66038d7ea4c68000341015610be55760405162461bcd60e51b815260206004820152601d60248201527f496e73756666696369656e74207061796d656e7420666f7220766f7465000000604482015260640161044c565b600082815260026020908152604080832033845290915290206001015415610c3f5760405162461bcd60e51b815260206004820152600d60248201526c105b1c9958591e481d9bdd1959609a1b604482015260640161044c565b6040805160608101825260ff838116808352426020808501918252348587019081526000898152600280845288822033835284528882209751885460ff1916971696909617875592516001808801919091559051959094019490945586815291909252918220600501805491929091610cb9908490611392565b90915550506000828152600160205260408120600601805491610cdb8361118c565b9091555050600082815260036020908152604080832080546001810182559084529282902090920180546001600160a01b03191633908117909155825160ff8516815234928101929092529184917f715a5673f144bedfaeeddd8c013cbb9b12de267c5e1b5debf115bfaaf2561b41910160405180910390a35050565b600081118015610d6a57506000548111155b610d865760405162461bcd60e51b815260040161044c906111a5565b6000818152600160205260409020600201546001600160a01b03163314610de55760405162461bcd60e51b81526020600482015260136024820152722737ba10383937b23ab1ba1031b932b0ba37b960691b604482015260640161044c565b6000908152600160205260409020600401805460ff19811660ff90911615179055565b60036020528160005260406000208181548110610e2457600080fd5b6000918252602090912001546001600160a01b03169150829050565b600081815260036020908152604091829020805483518184028101840190945280845260609392830182828015610ea057602002820191906000526020600020905b81546001600160a01b03168152600190910190602001808311610e82575b50505050509050919050565b80356001600160a01b0381168114610ec357600080fd5b919050565b60008060408385031215610edb57600080fd5b82359150610eeb60208401610eac565b90509250929050565b600060208284031215610f0657600080fd5b610f0f82610eac565b9392505050565b600060208284031215610f2857600080fd5b5035919050565b6000815180845260005b81811015610f5557602081850181015186830182015201610f39565b506000602082860101526020601f19601f83011685010191505092915050565b60a081526000610f8860a0830188610f2f565b8281036020840152610f9a8188610f2f565b6001600160a01b0396909616604084015250506060810192909252151560809091015292915050565b60e081526000610fd660e083018a610f2f565b8281036020840152610fe8818a610f2f565b6001600160a01b0398909816604084015250506060810194909452911515608084015260a083015260c09091015292915050565b60008083601f84011261102e57600080fd5b50813567ffffffffffffffff81111561104657600080fd5b60208301915083602082850101111561105e57600080fd5b9250929050565b6000806000806040858703121561107b57600080fd5b843567ffffffffffffffff8082111561109357600080fd5b61109f8883890161101c565b909650945060208701359150808211156110b857600080fd5b506110c58782880161101c565b95989497509550505050565b600080604083850312156110e457600080fd5b82359150602083013560ff811681146110fc57600080fd5b809150509250929050565b6000806040838503121561111a57600080fd5b50508035926020909101359150565b6020808252825182820181905260009190848201906040850190845b8181101561116a5783516001600160a01b031683529284019291840191600101611145565b50909695505050505050565b634e487b7160e01b600052601160045260246000fd5b60006001820161119e5761119e611176565b5060010190565b602080825260129082015271125b9d985b1a59081c1c9bd91d58dd08125160721b604082015260600190565b600181811c908216806111e557607f821691505b6020821081036105a257634e487b7160e01b600052602260045260246000fd5b808202811582820484141761054357610543611176565b60008261123957634e487b7160e01b600052601260045260246000fd5b500490565b634e487b7160e01b600052604160045260246000fd5b601f82111561129e57600081815260208120601f850160051c8101602086101561127b5750805b601f850160051c820191505b8181101561129a57828155600101611287565b5050505b505050565b815167ffffffffffffffff8111156112bd576112bd61123e565b6112d1816112cb84546111d1565b84611254565b602080601f83116001811461130657600084156112ee5750858301515b600019600386901b1c1916600185901b17855561129a565b600085815260208120601f198616915b8281101561133557888601518255948401946001909101908401611316565b50858210156113535787850151600019600388901b60f8161c191681555b5050505050600190811b01905550565b60208152816020820152818360408301376000818301604090810191909152601f909201601f19160101919050565b808201808211156105435761054361117656fea264697066735822122047640964ca54199089daf95f3c0ad5102bc7d4c3403097f261e412d64f4f170e64736f6c63430008130033",
  "linkReferences": {},
  "deployedLinkReferences": {}
}